{
  "address": "0x80019F565513cb1f731542b5Fd941831ead3346c",
  "abi": [
    {
      "inputs": [
        {
          "internalType": "contract ComptrollerLensInterface",
          "name": "comptroller",
          "type": "address"
        },
        {
          "internalType": "address",
          "name": "account",
          "type": "address"
        }
      ],
      "name": "rewardsAccrued",
      "outputs": [
        {
          "internalType": "address[]",
          "name": "rewardTokens",
          "type": "address[]"
        },
        {
          "internalType": "uint256[]",
          "name": "accrued",
          "type": "uint256[]"
        }
      ],
      "stateMutability": "nonpayable",
      "type": "function"
    }
  ],
  "transactionHash": "0x386a118776502c4e0a9f3fbadccafd7d9afaf94c11950e5278a9f981a7f6235f",
  "args": [],
  "numDeployments": 1,
  "solcInputHash": "24d35fea140db672f962df919b678bdd",
  "bytecode": "0x608060405234801561001057600080fd5b50610611806100206000396000f3fe608060405234801561001057600080fd5b506004361061002b5760003560e01c8063cf168a9d14610030575b600080fd5b61004361003e366004610398565b61005a565b6040516100519291906103d1565b60405180910390f35b6060806000846001600160a01b031663acc2166a6040518163ffffffff1660e01b8152600401602060405180830381865afa15801561009d573d6000803e3d6000fd5b505050506040513d601f19601f820116820180604052508101906100c19190610465565b9050806001600160a01b031663c4f59f9b6040518163ffffffff1660e01b8152600401600060405180830381865afa158015610101573d6000803e3d6000fd5b505050506040513d6000823e601f3d908101601f19168201604052610129919081019061049f565b92506000610137848661026e565b6040516374d7814960e11b81526001600160a01b0387811660048301529192509087169063e9af029290602401600060405180830381600087803b15801561017e57600080fd5b505af1158015610192573d6000803e3d6000fd5b5050505060006101a2858761026e565b9050845167ffffffffffffffff8111156101be576101be610489565b6040519080825280602002602001820160405280156101e7578160200160208202803683370190505b50935060005b85518110156102635782818151811061020857610208610564565b602002602001015182828151811061022257610222610564565b60200260200101516102349190610590565b85828151811061024657610246610564565b60209081029190910101528061025b816105a7565b9150506101ed565b505050509250929050565b6060825167ffffffffffffffff81111561028a5761028a610489565b6040519080825280602002602001820160405280156102b3578160200160208202803683370190505b50905060005b8351811015610379578381815181106102d4576102d4610564565b60209081029190910101516040516370a0823160e01b81526001600160a01b038581166004830152909116906370a0823190602401602060405180830381865afa158015610326573d6000803e3d6000fd5b505050506040513d601f19601f8201168201806040525081019061034a91906105c2565b82828151811061035c5761035c610564565b602090810291909101015280610371816105a7565b9150506102b9565b5092915050565b6001600160a01b038116811461039557600080fd5b50565b600080604083850312156103ab57600080fd5b82356103b681610380565b915060208301356103c681610380565b809150509250929050565b604080825283519082018190526000906020906060840190828701845b828110156104135781516001600160a01b0316845292840192908401906001016103ee565b5050508381038285015284518082528583019183019060005b818110156104485783518352928401929184019160010161042c565b5090979650505050505050565b805161046081610380565b919050565b60006020828403121561047757600080fd5b815161048281610380565b9392505050565b634e487b7160e01b600052604160045260246000fd5b600060208083850312156104b257600080fd5b825167ffffffffffffffff808211156104ca57600080fd5b818501915085601f8301126104de57600080fd5b8151818111156104f0576104f0610489565b8060051b604051601f19603f8301168101818110858211171561051557610515610489565b60405291825284820192508381018501918883111561053357600080fd5b938501935b828510156105585761054985610455565b84529385019392850192610538565b98975050505050505050565b634e487b7160e01b600052603260045260246000fd5b634e487b7160e01b600052601160045260246000fd5b6000828210156105a2576105a261057a565b500390565b60006000198214156105bb576105bb61057a565b5060010190565b6000602082840312156105d457600080fd5b505191905056fea264697066735822122098a4babc560058457091e0eed8f6fdc342749be4a476094f9d665131a60bdfa764736f6c634300080a0033",
  "devdoc": {
    "kind": "dev",
    "methods": {},
    "version": 1
  },
  "userdoc": {
    "kind": "user",
    "methods": {},
    "version": 1
  },
  "storageLayout": {
    "storage": [],
    "types": null
  }
}