{
  "address": "0xFf0349B0c5a42e28AA0F35AC4CffbC2B8958BBf2",
  "abi": [
    {
      "anonymous": false,
      "inputs": [
        {
          "indexed": true,
          "internalType": "address",
          "name": "rewardToken",
          "type": "address"
        },
        {
          "indexed": true,
          "internalType": "address",
          "name": "cToken",
          "type": "address"
        },
        {
          "indexed": false,
          "internalType": "uint256",
          "name": "borrowSpeed",
          "type": "uint256"
        }
      ],
      "name": "BorrowSpeedUpdated",
      "type": "event"
    },
    {
      "anonymous": false,
      "inputs": [
        {
          "indexed": false,
          "internalType": "uint8",
          "name": "version",
          "type": "uint8"
        }
      ],
      "name": "Initialized",
      "type": "event"
    },
    {
      "anonymous": false,
      "inputs": [
        {
          "indexed": true,
          "internalType": "address",
          "name": "previousOwner",
          "type": "address"
        },
        {
          "indexed": true,
          "internalType": "address",
          "name": "newOwner",
          "type": "address"
        }
      ],
      "name": "OwnershipTransferred",
      "type": "event"
    },
    {
      "anonymous": false,
      "inputs": [
        {
          "indexed": true,
          "internalType": "address",
          "name": "rewardToken",
          "type": "address"
        },
        {
          "indexed": true,
          "internalType": "address",
          "name": "user",
          "type": "address"
        },
        {
          "indexed": false,
          "internalType": "uint256",
          "name": "deltaAccrued",
          "type": "uint256"
        },
        {
          "indexed": false,
          "internalType": "uint256",
          "name": "totalAccrued",
          "type": "uint256"
        }
      ],
      "name": "RewardAccrued",
      "type": "event"
    },
    {
      "anonymous": false,
      "inputs": [
        {
          "indexed": true,
          "internalType": "address",
          "name": "rewardToken",
          "type": "address"
        },
        {
          "indexed": true,
          "internalType": "address",
          "name": "user",
          "type": "address"
        },
        {
          "indexed": false,
          "internalType": "uint256",
          "name": "amount",
          "type": "uint256"
        }
      ],
      "name": "RewardGranted",
      "type": "event"
    },
    {
      "anonymous": false,
      "inputs": [
        {
          "indexed": true,
          "internalType": "address",
          "name": "rewardToken",
          "type": "address"
        },
        {
          "indexed": true,
          "internalType": "address",
          "name": "cToken",
          "type": "address"
        },
        {
          "indexed": false,
          "internalType": "uint256",
          "name": "supplySpeed",
          "type": "uint256"
        }
      ],
      "name": "SupplySpeedUpdated",
      "type": "event"
    },
    {
      "inputs": [
        {
          "internalType": "address",
          "name": "token",
          "type": "address"
        },
        {
          "internalType": "address",
          "name": "user",
          "type": "address"
        },
        {
          "internalType": "uint256",
          "name": "amount",
          "type": "uint256"
        }
      ],
      "name": "_grantReward",
      "outputs": [],
      "stateMutability": "nonpayable",
      "type": "function"
    },
    {
      "inputs": [
        {
          "internalType": "address",
          "name": "rewardToken_",
          "type": "address"
        },
        {
          "internalType": "address[]",
          "name": "cTokens",
          "type": "address[]"
        },
        {
          "internalType": "uint256[]",
          "name": "supplySpeeds",
          "type": "uint256[]"
        },
        {
          "internalType": "uint256[]",
          "name": "borrowSpeeds",
          "type": "uint256[]"
        }
      ],
      "name": "_updateRewardSpeeds",
      "outputs": [],
      "stateMutability": "nonpayable",
      "type": "function"
    },
    {
      "inputs": [
        {
          "internalType": "address",
          "name": "rewardToken_",
          "type": "address"
        }
      ],
      "name": "_whitelistToken",
      "outputs": [],
      "stateMutability": "nonpayable",
      "type": "function"
    },
    {
      "inputs": [
        {
          "internalType": "address[]",
          "name": "holders",
          "type": "address[]"
        }
      ],
      "name": "claim",
      "outputs": [],
      "stateMutability": "nonpayable",
      "type": "function"
    },
    {
      "inputs": [],
      "name": "comptroller",
      "outputs": [
        {
          "internalType": "address",
          "name": "",
          "type": "address"
        }
      ],
      "stateMutability": "view",
      "type": "function"
    },
    {
      "inputs": [],
      "name": "getBlockNumber",
      "outputs": [
        {
          "internalType": "uint32",
          "name": "",
          "type": "uint32"
        }
      ],
      "stateMutability": "view",
      "type": "function"
    },
    {
      "inputs": [],
      "name": "getRewardTokens",
      "outputs": [
        {
          "internalType": "address[]",
          "name": "",
          "type": "address[]"
        }
      ],
      "stateMutability": "view",
      "type": "function"
    },
    {
      "inputs": [
        {
          "internalType": "address",
          "name": "comptroller_",
          "type": "address"
        }
      ],
      "name": "initialize",
      "outputs": [],
      "stateMutability": "nonpayable",
      "type": "function"
    },
    {
      "inputs": [
        {
          "internalType": "address",
          "name": "cToken",
          "type": "address"
        }
      ],
      "name": "notifyBorrowIndex",
      "outputs": [],
      "stateMutability": "nonpayable",
      "type": "function"
    },
    {
      "inputs": [
        {
          "internalType": "address",
          "name": "cToken",
          "type": "address"
        },
        {
          "internalType": "address",
          "name": "borrower",
          "type": "address"
        }
      ],
      "name": "notifyBorrower",
      "outputs": [],
      "stateMutability": "nonpayable",
      "type": "function"
    },
    {
      "inputs": [
        {
          "internalType": "address",
          "name": "cToken",
          "type": "address"
        },
        {
          "internalType": "address",
          "name": "supplier",
          "type": "address"
        }
      ],
      "name": "notifySupplier",
      "outputs": [],
      "stateMutability": "nonpayable",
      "type": "function"
    },
    {
      "inputs": [
        {
          "internalType": "address",
          "name": "cToken",
          "type": "address"
        }
      ],
      "name": "notifySupplyIndex",
      "outputs": [],
      "stateMutability": "nonpayable",
      "type": "function"
    },
    {
      "inputs": [],
      "name": "owner",
      "outputs": [
        {
          "internalType": "address",
          "name": "",
          "type": "address"
        }
      ],
      "stateMutability": "view",
      "type": "function"
    },
    {
      "inputs": [],
      "name": "renounceOwnership",
      "outputs": [],
      "stateMutability": "nonpayable",
      "type": "function"
    },
    {
      "inputs": [
        {
          "internalType": "address",
          "name": "",
          "type": "address"
        },
        {
          "internalType": "address",
          "name": "",
          "type": "address"
        }
      ],
      "name": "rewardAccountState",
      "outputs": [
        {
          "internalType": "uint256",
          "name": "rewardAccrued",
          "type": "uint256"
        }
      ],
      "stateMutability": "view",
      "type": "function"
    },
    {
      "inputs": [],
      "name": "rewardInitialIndex",
      "outputs": [
        {
          "internalType": "uint224",
          "name": "",
          "type": "uint224"
        }
      ],
      "stateMutability": "view",
      "type": "function"
    },
    {
      "inputs": [
        {
          "internalType": "address",
          "name": "",
          "type": "address"
        },
        {
          "internalType": "address",
          "name": "",
          "type": "address"
        }
      ],
      "name": "rewardMarketState",
      "outputs": [
        {
          "internalType": "uint256",
          "name": "supplySpeed",
          "type": "uint256"
        },
        {
          "internalType": "uint224",
          "name": "supplyIndex",
          "type": "uint224"
        },
        {
          "internalType": "uint32",
          "name": "supplyBlock",
          "type": "uint32"
        },
        {
          "internalType": "uint256",
          "name": "borrowSpeed",
          "type": "uint256"
        },
        {
          "internalType": "uint224",
          "name": "borrowIndex",
          "type": "uint224"
        },
        {
          "internalType": "uint32",
          "name": "borrowBlock",
          "type": "uint32"
        }
      ],
      "stateMutability": "view",
      "type": "function"
    },
    {
      "inputs": [
        {
          "internalType": "address",
          "name": "",
          "type": "address"
        }
      ],
      "name": "rewardTokenExists",
      "outputs": [
        {
          "internalType": "bool",
          "name": "",
          "type": "bool"
        }
      ],
      "stateMutability": "view",
      "type": "function"
    },
    {
      "inputs": [
        {
          "internalType": "uint256",
          "name": "",
          "type": "uint256"
        }
      ],
      "name": "rewardTokens",
      "outputs": [
        {
          "internalType": "address",
          "name": "",
          "type": "address"
        }
      ],
      "stateMutability": "view",
      "type": "function"
    },
    {
      "inputs": [
        {
          "internalType": "address",
          "name": "newOwner",
          "type": "address"
        }
      ],
      "name": "transferOwnership",
      "outputs": [],
      "stateMutability": "nonpayable",
      "type": "function"
    }
  ],
  "transactionHash": "0x79fdd499ff3a067c8b642cb53a7aab18979d40f63d5eeeb04a79be593a34eff3",
  "args": [],
  "numDeployments": 1,
  "solcInputHash": "24d35fea140db672f962df919b678bdd",
  "bytecode": "0x608060405234801561001057600080fd5b50611f17806100206000396000f3fe608060405234801561001057600080fd5b506004361061012c5760003560e01c80637bb7bed1116100ad578063c4f59f9b11610071578063c4f59f9b1461035e578063e86b2fbe14610373578063eb8f280614610386578063f2fde38b14610399578063f49dc6b6146103ac57600080fd5b80637bb7bed1146102d8578063831e8dec146102eb5780638da5cb5b146103275780638daa0acb14610338578063c4d66de81461034b57600080fd5b806345a49d3c116100f457806345a49d3c146102525780635ce65fe9146102655780635fe3b5671461027857806366f91a24146102a3578063715018a6146102d057600080fd5b8063246467e8146101315780632e4a5d6014610146578063318d9e5d1461017e57806332894a6d1461019157806342cbb15c14610235575b600080fd5b61014461013f3660046119cf565b6103bf565b005b610169610154366004611a0b565b60696020526000908152604090205460ff1681565b60405190151581526020015b60405180910390f35b61014461018c366004611b03565b610462565b6101f461019f366004611b40565b6066602090815260009283526040808420909152908252902080546001820154600283015460039093015491926001600160e01b038083169363ffffffff600160e01b94859004811694928216929091041686565b604080519687526001600160e01b03958616602088015263ffffffff94851690870152606086019290925290921660808401521660a082015260c001610175565b61023d6104b6565b60405163ffffffff9091168152602001610175565b610144610260366004611b40565b6104fc565b610144610273366004611a0b565b61057c565b60655461028b906001600160a01b031681565b6040516001600160a01b039091168152602001610175565b6102b86a0c097ce7bc90715b34b9f160241b81565b6040516001600160e01b039091168152602001610175565b6101446105f6565b61028b6102e6366004611b73565b61060a565b6103196102f9366004611b40565b606760209081526000928352604080842090915290825290206002015481565b604051908152602001610175565b6033546001600160a01b031661028b565b610144610346366004611a0b565b610634565b610144610359366004611a0b565b610798565b6103666108c4565b6040516101759190611b8c565b610144610381366004611a0b565b610926565b610144610394366004611b40565b6109a0565b6101446103a7366004611a0b565b610a1b565b6101446103ba366004611c34565b610a94565b6103c7610c75565b6001600160a01b03831660009081526069602052604090205460ff166104515760405162461bcd60e51b815260206004820152603460248201527f5265776172644469737472696275746f723a206772616e7420726577617264206044820152731d1bdad95b88191bd95cc81b9bdd08195e1a5cdd60621b60648201526084015b60405180910390fd5b61045c838383610ccf565b50505050565b60005b6068548110156104b2576104a06068828154811061048557610485611ccd565b6000918252602090912001546001600160a01b031683610e2a565b806104aa81611cf9565b915050610465565b5050565b60006104f7426040518060400160405280601c81526020017f626c6f636b206e756d6265722065786365656473203332206269747300000000815250610ece565b905090565b6065546001600160a01b031633146105265760405162461bcd60e51b815260040161044890611d14565b60005b606854811015610577576105656068828154811061054957610549611ccd565b6000918252602090912001546001600160a01b03168484610efe565b8061056f81611cf9565b915050610529565b505050565b6065546001600160a01b031633146105a65760405162461bcd60e51b815260040161044890611d14565b60005b6068548110156104b2576105e4606882815481106105c9576105c9611ccd565b6000918252602090912001546001600160a01b031683611096565b806105ee81611cf9565b9150506105a9565b6105fe610c75565b61060860006112e8565b565b6068818154811061061a57600080fd5b6000918252602090912001546001600160a01b0316905081565b61063c610c75565b6001600160a01b0381166106b15760405162461bcd60e51b815260206004820152603660248201527f5265776172644469737472696275746f723a2072657761726420746f6b656e2060448201527563616e6e6f74206265207a65726f206164647265737360501b6064820152608401610448565b6001600160a01b03811660009081526069602052604090205460ff16156107315760405162461bcd60e51b815260206004820152602e60248201527f5265776172644469737472696275746f723a2072657761726420746f6b656e2060448201526d616c72656164792065786973747360901b6064820152608401610448565b6068805460018181019092557fa2153420d844928b4421650203c77babc8b33d7f2e7b450e2966db0c220977530180546001600160a01b039093166001600160a01b031990931683179055600091825260696020526040909120805460ff19169091179055565b600054610100900460ff16158080156107b85750600054600160ff909116105b806107d25750303b1580156107d2575060005460ff166001145b6108355760405162461bcd60e51b815260206004820152602e60248201527f496e697469616c697a61626c653a20636f6e747261637420697320616c72656160448201526d191e481a5b9a5d1a585b1a5e995960921b6064820152608401610448565b6000805460ff191660011790558015610858576000805461ff0019166101001790555b61086061133a565b606580546001600160a01b0319166001600160a01b03841617905580156104b2576000805461ff0019169055604051600181527f7f26b83ff96e1f2b6a682f133852f6798a09c465da95921460cefb38474024989060200160405180910390a15050565b6060606880548060200260200160405190810160405280929190818152602001828054801561091c57602002820191906000526020600020905b81546001600160a01b031681526001909101906020018083116108fe575b5050505050905090565b6065546001600160a01b031633146109505760405162461bcd60e51b815260040161044890611d14565b60005b6068548110156104b25761098e6068828154811061097357610973611ccd565b6000918252602090912001546001600160a01b031683611369565b8061099881611cf9565b915050610953565b6065546001600160a01b031633146109ca5760405162461bcd60e51b815260040161044890611d14565b60005b60685481101561057757610a09606882815481106109ed576109ed611ccd565b6000918252602090912001546001600160a01b03168484611501565b80610a1381611cf9565b9150506109cd565b610a23610c75565b6001600160a01b038116610a885760405162461bcd60e51b815260206004820152602660248201527f4f776e61626c653a206e6577206f776e657220697320746865207a65726f206160448201526564647265737360d01b6064820152608401610448565b610a91816112e8565b50565b610a9c610c75565b6001600160a01b03841660009081526069602052604090205460ff16610b1b5760405162461bcd60e51b815260206004820152602e60248201527f5265776172644469737472696275746f723a2072657761726420746f6b656e2060448201526d191bd95cc81b9bdd08195e1a5cdd60921b6064820152608401610448565b8151835114610b8a5760405162461bcd60e51b815260206004820152603560248201527f5265776172644469737472696275746f723a20737570706c79207370656564206044820152740c2e4e4c2f240d8cadccee8d040dad2e6dac2e8c6d605b1b6064820152608401610448565b8051835114610bf95760405162461bcd60e51b815260206004820152603560248201527f5265776172644469737472696275746f723a20626f72726f77207370656564206044820152740c2e4e4c2f240d8cadccee8d040dad2e6dac2e8c6d605b1b6064820152608401610448565b60005b8351811015610c6e57610c5c85858381518110610c1b57610c1b611ccd565b6020026020010151858481518110610c3557610c35611ccd565b6020026020010151858581518110610c4f57610c4f611ccd565b602002602001015161171b565b80610c6681611cf9565b915050610bfc565b5050505050565b6033546001600160a01b031633146106085760405162461bcd60e51b815260206004820181905260248201527f4f776e61626c653a2063616c6c6572206973206e6f7420746865206f776e65726044820152606401610448565b6040516370a0823160e01b815230600482015260009081906001600160a01b038616906370a0823190602401602060405180830381865afa158015610d18573d6000803e3d6000fd5b505050506040513d601f19601f82011682018060405250810190610d3c9190611d71565b9050600083118015610d4e5750808311155b15610e1e5760405163a9059cbb60e01b81526001600160a01b0385811660048301526024820185905286169063a9059cbb906044016020604051808303816000875af1158015610da2573d6000803e3d6000fd5b505050506040513d601f19601f82011682018060405250810190610dc69190611d8a565b50836001600160a01b0316856001600160a01b03167f6123969dd9705ebe9fca0229b85009158c92cae456c32d917d8d435748f3abd385604051610e0c91815260200190565b60405180910390a36000915050610e23565b829150505b9392505050565b60005b8151811015610577576001600160a01b038316600090815260676020526040812083518290859085908110610e6457610e64611ccd565b60200260200101516001600160a01b03166001600160a01b031681526020019081526020016000209050610eb684848481518110610ea457610ea4611ccd565b60200260200101518360020154610ccf565b60029091015580610ec681611cf9565b915050610e2d565b6000816401000000008410610ef65760405162461bcd60e51b81526004016104489190611dac565b509192915050565b6001600160a01b03808416600081815260666020908152604080832087861680855290835281842094845260678352818420958716845294825280832060018501549584529182905290912080546001600160e01b0390941690819055919290919080158015610f7c57506a0c097ce7bc90715b34b9f160241b8210155b15610f9257506a0c097ce7bc90715b34b9f160241b5b60006040518060200160405280610fa98585611875565b90526040516370a0823160e01b81526001600160a01b0388811660048301529192506000918916906370a0823190602401602060405180830381865afa158015610ff7573d6000803e3d6000fd5b505050506040513d601f19601f8201168201806040525081019061101b9190611d71565b905060006110298284611881565b90506110398660020154826118aa565b600287018190556040805183815260208101929092526001600160a01b038a811692908d16917ffd07974d3aaf62e9d6f1492b77eba5e72f99d8367e456eaf203de8491d42c999910160405180910390a350505050505050505050565b60006040518060200160405280836001600160a01b031663aa5af0fd6040518163ffffffff1660e01b8152600401602060405180830381865afa1580156110e1573d6000803e3d6000fd5b505050506040513d601f19601f820116820180604052508101906111059190611d71565b90526001600160a01b03808516600090815260666020908152604080832093871683529290529081209192506111396104b6565b600383015490915063ffffffff600160e01b90910481169082161115610c6e576002820154156112c057600382015460009061118290600160e01b900463ffffffff1683611e01565b63ffffffff16905060006111f7866001600160a01b03166347bd37186040518163ffffffff1660e01b8152600401602060405180830381865afa1580156111cd573d6000803e3d6000fd5b505050506040513d601f19601f820116820180604052508101906111f19190611d71565b866118b6565b905060006112098386600201546118d4565b905060008083116112295760405180602001604052806000815250611233565b61123382846118e0565b604080516020810190915260038801546001600160e01b031681529091506112999061125f9083611924565b5160408051808201909152601a81527f6e657720696e64657820657863656564732032323420626974730000000000006020820152611950565b6003870180546001600160e01b0319166001600160e01b0392909216919091179055505050505b60038201805463ffffffff8316600160e01b026001600160e01b039091161790555050505050565b603380546001600160a01b038381166001600160a01b0319831681179093556040519116919082907f8be0079c531659141344cd1fd0a4f28419497f9722a3daafe3b4186f6b6457e090600090a35050565b600054610100900460ff166113615760405162461bcd60e51b815260040161044890611e26565b610608611977565b6001600160a01b0380831660009081526066602090815260408083209385168352929052908120906113996104b6565b600183015490915063ffffffff600160e01b9091048116908216111561045c578154156114da5760018201546000906113df90600160e01b900463ffffffff1683611e01565b63ffffffff1690506000846001600160a01b03166318160ddd6040518163ffffffff1660e01b8152600401602060405180830381865afa158015611427573d6000803e3d6000fd5b505050506040513d601f19601f8201168201806040525081019061144b9190611d71565b9050600061145d8386600001546118d4565b9050600080831161147d5760405180602001604052806000815250611487565b61148782846118e0565b604080516020810190915260018801546001600160e01b031681529091506114b39061125f9083611924565b6001870180546001600160e01b0319166001600160e01b0392909216919091179055505050505b60018201805463ffffffff8316600160e01b026001600160e01b0390911617905550505050565b60006040518060200160405280846001600160a01b031663aa5af0fd6040518163ffffffff1660e01b8152600401602060405180830381865afa15801561154c573d6000803e3d6000fd5b505050506040513d601f19601f820116820180604052508101906115709190611d71565b90526001600160a01b03808616600081815260666020908152604080832089861680855290835281842094845260678352818420958916845294825280832060038501549584526001810190925290912080546001600160e01b039094169081905593945090929091801580156115f557506a0c097ce7bc90715b34b9f160241b8210155b1561160b57506a0c097ce7bc90715b34b9f160241b5b600060405180602001604052806116228585611875565b90526040516395dd919360e01b81526001600160a01b03898116600483015291925060009161169f91908b16906395dd919390602401602060405180830381865afa158015611675573d6000803e3d6000fd5b505050506040513d601f19601f820116820180604052508101906116999190611d71565b886118b6565b905060006116ad8284611881565b90506116bd8660020154826118aa565b600287018190556040805183815260208101929092526001600160a01b038b811692908e16917ffd07974d3aaf62e9d6f1492b77eba5e72f99d8367e456eaf203de8491d42c999910160405180910390a35050505050505050505050565b6001600160a01b038085166000908152606660209081526040808320938716835292905220805483146117ce5760018101546001600160e01b031661177d576001810180546001600160e01b0319166a0c097ce7bc90715b34b9f160241b1790555b6117878585611369565b8281556040518381526001600160a01b0385811691908716907f61918eb908e35e96d460dc030b7c4f6448ac64f1383759571b9c7cab50efd0469060200160405180910390a35b81816002015414610c6e5760038101546001600160e01b031661180e576003810180546001600160e01b0319166a0c097ce7bc90715b34b9f160241b1790555b6118188585611096565b818160020181905550836001600160a01b0316856001600160a01b03167f13b9c4bac6e50afba9701545614343a5e29bc815d483928198270e878c42eaf98460405161186691815260200190565b60405180910390a35050505050565b6000610e238284611e71565b60006a0c097ce7bc90715b34b9f160241b6118a08484600001516118d4565b610e239190611e88565b6000610e238284611eaa565b6000610e236118cd84670de0b6b3a76400006118d4565b83516119a7565b6000610e238284611ec2565b604080516020810190915260008152604051806020016040528061191b611915866a0c097ce7bc90715b34b9f160241b6118d4565b856119a7565b90529392505050565b604080516020810190915260008152604051806020016040528061191b856000015185600001516118aa565b600081600160e01b8410610ef65760405162461bcd60e51b81526004016104489190611dac565b600054610100900460ff1661199e5760405162461bcd60e51b815260040161044890611e26565b610608336112e8565b6000610e238284611e88565b80356001600160a01b03811681146119ca57600080fd5b919050565b6000806000606084860312156119e457600080fd5b6119ed846119b3565b92506119fb602085016119b3565b9150604084013590509250925092565b600060208284031215611a1d57600080fd5b610e23826119b3565b634e487b7160e01b600052604160045260246000fd5b604051601f8201601f1916810167ffffffffffffffff81118282101715611a6557611a65611a26565b604052919050565b600067ffffffffffffffff821115611a8757611a87611a26565b5060051b60200190565b600082601f830112611aa257600080fd5b81356020611ab7611ab283611a6d565b611a3c565b82815260059290921b84018101918181019086841115611ad657600080fd5b8286015b84811015611af857611aeb816119b3565b8352918301918301611ada565b509695505050505050565b600060208284031215611b1557600080fd5b813567ffffffffffffffff811115611b2c57600080fd5b611b3884828501611a91565b949350505050565b60008060408385031215611b5357600080fd5b611b5c836119b3565b9150611b6a602084016119b3565b90509250929050565b600060208284031215611b8557600080fd5b5035919050565b6020808252825182820181905260009190848201906040850190845b81811015611bcd5783516001600160a01b031683529284019291840191600101611ba8565b50909695505050505050565b600082601f830112611bea57600080fd5b81356020611bfa611ab283611a6d565b82815260059290921b84018101918181019086841115611c1957600080fd5b8286015b84811015611af85780358352918301918301611c1d565b60008060008060808587031215611c4a57600080fd5b611c53856119b3565b9350602085013567ffffffffffffffff80821115611c7057600080fd5b611c7c88838901611a91565b94506040870135915080821115611c9257600080fd5b611c9e88838901611bd9565b93506060870135915080821115611cb457600080fd5b50611cc187828801611bd9565b91505092959194509250565b634e487b7160e01b600052603260045260246000fd5b634e487b7160e01b600052601160045260246000fd5b6000600019821415611d0d57611d0d611ce3565b5060010190565b6020808252603a908201527f5265776172644469737472696275746f723a206f6e6c7920636f6d7074726f6c60408201527f6c65722063616e2063616c6c20746869732066756e6374696f6e000000000000606082015260800190565b600060208284031215611d8357600080fd5b5051919050565b600060208284031215611d9c57600080fd5b81518015158114610e2357600080fd5b600060208083528351808285015260005b81811015611dd957858101830151858201604001528201611dbd565b81811115611deb576000604083870101525b50601f01601f1916929092016040019392505050565b600063ffffffff83811690831681811015611e1e57611e1e611ce3565b039392505050565b6020808252602b908201527f496e697469616c697a61626c653a20636f6e7472616374206973206e6f74206960408201526a6e697469616c697a696e6760a81b606082015260800190565b600082821015611e8357611e83611ce3565b500390565b600082611ea557634e487b7160e01b600052601260045260246000fd5b500490565b60008219821115611ebd57611ebd611ce3565b500190565b6000816000190483118215151615611edc57611edc611ce3565b50029056fea26469706673582212202d69a1b17a199170b1dd2f4341edb2d61487739ad3453621af17ccfb7cee841c64736f6c634300080a0033",
  "devdoc": {
    "author": "Sonne Finance",
    "kind": "dev",
    "methods": {
      "owner()": {
        "details": "Returns the address of the current owner."
      },
      "renounceOwnership()": {
        "details": "Leaves the contract without owner. It will not be possible to call `onlyOwner` functions anymore. Can only be called by the current owner. NOTE: Renouncing ownership will leave the contract without an owner, thereby removing any functionality that is only available to the owner."
      },
      "transferOwnership(address)": {
        "details": "Transfers ownership of the contract to a new account (`newOwner`). Can only be called by the current owner."
      }
    },
    "title": "Reward Distributor (version 1)",
    "version": 1
  },
  "userdoc": {
    "kind": "user",
    "methods": {
      "comptroller()": {
        "notice": "The comptroller that rewards are distributed to"
      },
      "getRewardTokens()": {
        "notice": "Getters "
      },
      "rewardAccountState(address,address)": {
        "notice": "The Reward state for each reward token for each account"
      },
      "rewardInitialIndex()": {
        "notice": "The initial reward index for a market"
      },
      "rewardMarketState(address,address)": {
        "notice": "The Reward state for each reward token for each market"
      },
      "rewardTokenExists(address)": {
        "notice": "Flag to check if reward token added before"
      },
      "rewardTokens(uint256)": {
        "notice": "Added reward tokens"
      }
    },
    "notice": "This contract is used to distribute rewards to users for supplying and borrowing assets. Each supply and borrow changing action from comptroller will trigger index update for each reward token.",
    "version": 1
  },
  "storageLayout": {
    "storage": [
      {
        "astId": 138,
        "contract": "contracts/RewardDistributor.sol:RewardDistributor",
        "label": "_initialized",
        "offset": 0,
        "slot": "0",
        "type": "t_uint8"
      },
      {
        "astId": 141,
        "contract": "contracts/RewardDistributor.sol:RewardDistributor",
        "label": "_initializing",
        "offset": 1,
        "slot": "0",
        "type": "t_bool"
      },
      {
        "astId": 625,
        "contract": "contracts/RewardDistributor.sol:RewardDistributor",
        "label": "__gap",
        "offset": 0,
        "slot": "1",
        "type": "t_array(t_uint256)50_storage"
      },
      {
        "astId": 10,
        "contract": "contracts/RewardDistributor.sol:RewardDistributor",
        "label": "_owner",
        "offset": 0,
        "slot": "51",
        "type": "t_address"
      },
      {
        "astId": 130,
        "contract": "contracts/RewardDistributor.sol:RewardDistributor",
        "label": "__gap",
        "offset": 0,
        "slot": "52",
        "type": "t_array(t_uint256)49_storage"
      },
      {
        "astId": 13861,
        "contract": "contracts/RewardDistributor.sol:RewardDistributor",
        "label": "comptroller",
        "offset": 0,
        "slot": "101",
        "type": "t_address"
      },
      {
        "astId": 13869,
        "contract": "contracts/RewardDistributor.sol:RewardDistributor",
        "label": "rewardMarketState",
        "offset": 0,
        "slot": "102",
        "type": "t_mapping(t_address,t_mapping(t_address,t_struct(RewardMarketState)13799_storage))"
      },
      {
        "astId": 13877,
        "contract": "contracts/RewardDistributor.sol:RewardDistributor",
        "label": "rewardAccountState",
        "offset": 0,
        "slot": "103",
        "type": "t_mapping(t_address,t_mapping(t_address,t_struct(RewardAccountState)13813_storage))"
      },
      {
        "astId": 13881,
        "contract": "contracts/RewardDistributor.sol:RewardDistributor",
        "label": "rewardTokens",
        "offset": 0,
        "slot": "104",
        "type": "t_array(t_address)dyn_storage"
      },
      {
        "astId": 13886,
        "contract": "contracts/RewardDistributor.sol:RewardDistributor",
        "label": "rewardTokenExists",
        "offset": 0,
        "slot": "105",
        "type": "t_mapping(t_address,t_bool)"
      }
    ],
    "types": {
      "t_address": {
        "encoding": "inplace",
        "label": "address",
        "numberOfBytes": "20"
      },
      "t_array(t_address)dyn_storage": {
        "base": "t_address",
        "encoding": "dynamic_array",
        "label": "address[]",
        "numberOfBytes": "32"
      },
      "t_array(t_uint256)49_storage": {
        "base": "t_uint256",
        "encoding": "inplace",
        "label": "uint256[49]",
        "numberOfBytes": "1568"
      },
      "t_array(t_uint256)50_storage": {
        "base": "t_uint256",
        "encoding": "inplace",
        "label": "uint256[50]",
        "numberOfBytes": "1600"
      },
      "t_bool": {
        "encoding": "inplace",
        "label": "bool",
        "numberOfBytes": "1"
      },
      "t_mapping(t_address,t_bool)": {
        "encoding": "mapping",
        "key": "t_address",
        "label": "mapping(address => bool)",
        "numberOfBytes": "32",
        "value": "t_bool"
      },
      "t_mapping(t_address,t_mapping(t_address,t_struct(RewardAccountState)13813_storage))": {
        "encoding": "mapping",
        "key": "t_address",
        "label": "mapping(address => mapping(address => struct RewardAccountState))",
        "numberOfBytes": "32",
        "value": "t_mapping(t_address,t_struct(RewardAccountState)13813_storage)"
      },
      "t_mapping(t_address,t_mapping(t_address,t_struct(RewardMarketState)13799_storage))": {
        "encoding": "mapping",
        "key": "t_address",
        "label": "mapping(address => mapping(address => struct RewardMarketState))",
        "numberOfBytes": "32",
        "value": "t_mapping(t_address,t_struct(RewardMarketState)13799_storage)"
      },
      "t_mapping(t_address,t_struct(RewardAccountState)13813_storage)": {
        "encoding": "mapping",
        "key": "t_address",
        "label": "mapping(address => struct RewardAccountState)",
        "numberOfBytes": "32",
        "value": "t_struct(RewardAccountState)13813_storage"
      },
      "t_mapping(t_address,t_struct(RewardMarketState)13799_storage)": {
        "encoding": "mapping",
        "key": "t_address",
        "label": "mapping(address => struct RewardMarketState)",
        "numberOfBytes": "32",
        "value": "t_struct(RewardMarketState)13799_storage"
      },
      "t_mapping(t_address,t_uint256)": {
        "encoding": "mapping",
        "key": "t_address",
        "label": "mapping(address => uint256)",
        "numberOfBytes": "32",
        "value": "t_uint256"
      },
      "t_struct(RewardAccountState)13813_storage": {
        "encoding": "inplace",
        "label": "struct RewardAccountState",
        "members": [
          {
            "astId": 13804,
            "contract": "contracts/RewardDistributor.sol:RewardDistributor",
            "label": "supplierIndex",
            "offset": 0,
            "slot": "0",
            "type": "t_mapping(t_address,t_uint256)"
          },
          {
            "astId": 13809,
            "contract": "contracts/RewardDistributor.sol:RewardDistributor",
            "label": "borrowerIndex",
            "offset": 0,
            "slot": "1",
            "type": "t_mapping(t_address,t_uint256)"
          },
          {
            "astId": 13812,
            "contract": "contracts/RewardDistributor.sol:RewardDistributor",
            "label": "rewardAccrued",
            "offset": 0,
            "slot": "2",
            "type": "t_uint256"
          }
        ],
        "numberOfBytes": "96"
      },
      "t_struct(RewardMarketState)13799_storage": {
        "encoding": "inplace",
        "label": "struct RewardMarketState",
        "members": [
          {
            "astId": 13783,
            "contract": "contracts/RewardDistributor.sol:RewardDistributor",
            "label": "supplySpeed",
            "offset": 0,
            "slot": "0",
            "type": "t_uint256"
          },
          {
            "astId": 13786,
            "contract": "contracts/RewardDistributor.sol:RewardDistributor",
            "label": "supplyIndex",
            "offset": 0,
            "slot": "1",
            "type": "t_uint224"
          },
          {
            "astId": 13789,
            "contract": "contracts/RewardDistributor.sol:RewardDistributor",
            "label": "supplyBlock",
            "offset": 28,
            "slot": "1",
            "type": "t_uint32"
          },
          {
            "astId": 13792,
            "contract": "contracts/RewardDistributor.sol:RewardDistributor",
            "label": "borrowSpeed",
            "offset": 0,
            "slot": "2",
            "type": "t_uint256"
          },
          {
            "astId": 13795,
            "contract": "contracts/RewardDistributor.sol:RewardDistributor",
            "label": "borrowIndex",
            "offset": 0,
            "slot": "3",
            "type": "t_uint224"
          },
          {
            "astId": 13798,
            "contract": "contracts/RewardDistributor.sol:RewardDistributor",
            "label": "borrowBlock",
            "offset": 28,
            "slot": "3",
            "type": "t_uint32"
          }
        ],
        "numberOfBytes": "128"
      },
      "t_uint224": {
        "encoding": "inplace",
        "label": "uint224",
        "numberOfBytes": "28"
      },
      "t_uint256": {
        "encoding": "inplace",
        "label": "uint256",
        "numberOfBytes": "32"
      },
      "t_uint32": {
        "encoding": "inplace",
        "label": "uint32",
        "numberOfBytes": "4"
      },
      "t_uint8": {
        "encoding": "inplace",
        "label": "uint8",
        "numberOfBytes": "1"
      }
    }
  }
}