{
  "address": "0x568d1D500a8ac80A0cC7131E26299E05BE07E3A5",
  "abi": [
    {
      "inputs": [
        {
          "internalType": "uint256",
          "name": "blocksPerYear_",
          "type": "uint256"
        },
        {
          "internalType": "uint256",
          "name": "baseRatePerYear",
          "type": "uint256"
        },
        {
          "internalType": "uint256",
          "name": "multiplierPerYear",
          "type": "uint256"
        },
        {
          "internalType": "uint256",
          "name": "jumpMultiplierPerYear",
          "type": "uint256"
        },
        {
          "internalType": "uint256",
          "name": "kink_",
          "type": "uint256"
        },
        {
          "internalType": "address",
          "name": "owner_",
          "type": "address"
        },
        {
          "internalType": "string",
          "name": "name_",
          "type": "string"
        }
      ],
      "stateMutability": "nonpayable",
      "type": "constructor"
    },
    {
      "anonymous": false,
      "inputs": [
        {
          "indexed": false,
          "internalType": "uint256",
          "name": "baseRatePerBlock",
          "type": "uint256"
        },
        {
          "indexed": false,
          "internalType": "uint256",
          "name": "multiplierPerBlock",
          "type": "uint256"
        },
        {
          "indexed": false,
          "internalType": "uint256",
          "name": "jumpMultiplierPerBlock",
          "type": "uint256"
        },
        {
          "indexed": false,
          "internalType": "uint256",
          "name": "kink",
          "type": "uint256"
        }
      ],
      "name": "NewInterestParams",
      "type": "event"
    },
    {
      "anonymous": false,
      "inputs": [
        {
          "indexed": true,
          "internalType": "address",
          "name": "previousOwner",
          "type": "address"
        },
        {
          "indexed": true,
          "internalType": "address",
          "name": "newOwner",
          "type": "address"
        }
      ],
      "name": "OwnershipTransferred",
      "type": "event"
    },
    {
      "inputs": [],
      "name": "baseRatePerBlock",
      "outputs": [
        {
          "internalType": "uint256",
          "name": "",
          "type": "uint256"
        }
      ],
      "stateMutability": "view",
      "type": "function"
    },
    {
      "inputs": [],
      "name": "blocksPerYear",
      "outputs": [
        {
          "internalType": "uint256",
          "name": "",
          "type": "uint256"
        }
      ],
      "stateMutability": "view",
      "type": "function"
    },
    {
      "inputs": [
        {
          "internalType": "uint256",
          "name": "cash",
          "type": "uint256"
        },
        {
          "internalType": "uint256",
          "name": "borrows",
          "type": "uint256"
        },
        {
          "internalType": "uint256",
          "name": "reserves",
          "type": "uint256"
        }
      ],
      "name": "getBorrowRate",
      "outputs": [
        {
          "internalType": "uint256",
          "name": "",
          "type": "uint256"
        }
      ],
      "stateMutability": "view",
      "type": "function"
    },
    {
      "inputs": [
        {
          "internalType": "uint256",
          "name": "cash",
          "type": "uint256"
        },
        {
          "internalType": "uint256",
          "name": "borrows",
          "type": "uint256"
        },
        {
          "internalType": "uint256",
          "name": "reserves",
          "type": "uint256"
        },
        {
          "internalType": "uint256",
          "name": "reserveFactorMantissa",
          "type": "uint256"
        }
      ],
      "name": "getSupplyRate",
      "outputs": [
        {
          "internalType": "uint256",
          "name": "",
          "type": "uint256"
        }
      ],
      "stateMutability": "view",
      "type": "function"
    },
    {
      "inputs": [],
      "name": "isInterestRateModel",
      "outputs": [
        {
          "internalType": "bool",
          "name": "",
          "type": "bool"
        }
      ],
      "stateMutability": "view",
      "type": "function"
    },
    {
      "inputs": [],
      "name": "isOwner",
      "outputs": [
        {
          "internalType": "bool",
          "name": "",
          "type": "bool"
        }
      ],
      "stateMutability": "view",
      "type": "function"
    },
    {
      "inputs": [],
      "name": "jumpMultiplierPerBlock",
      "outputs": [
        {
          "internalType": "uint256",
          "name": "",
          "type": "uint256"
        }
      ],
      "stateMutability": "view",
      "type": "function"
    },
    {
      "inputs": [],
      "name": "kink",
      "outputs": [
        {
          "internalType": "uint256",
          "name": "",
          "type": "uint256"
        }
      ],
      "stateMutability": "view",
      "type": "function"
    },
    {
      "inputs": [],
      "name": "multiplierPerBlock",
      "outputs": [
        {
          "internalType": "uint256",
          "name": "",
          "type": "uint256"
        }
      ],
      "stateMutability": "view",
      "type": "function"
    },
    {
      "inputs": [],
      "name": "name",
      "outputs": [
        {
          "internalType": "string",
          "name": "",
          "type": "string"
        }
      ],
      "stateMutability": "view",
      "type": "function"
    },
    {
      "inputs": [],
      "name": "owner",
      "outputs": [
        {
          "internalType": "address",
          "name": "",
          "type": "address"
        }
      ],
      "stateMutability": "view",
      "type": "function"
    },
    {
      "inputs": [],
      "name": "renounceOwnership",
      "outputs": [],
      "stateMutability": "nonpayable",
      "type": "function"
    },
    {
      "inputs": [
        {
          "internalType": "address",
          "name": "newOwner",
          "type": "address"
        }
      ],
      "name": "transferOwnership",
      "outputs": [],
      "stateMutability": "nonpayable",
      "type": "function"
    },
    {
      "inputs": [
        {
          "internalType": "uint256",
          "name": "blocksPerYear_",
          "type": "uint256"
        }
      ],
      "name": "updateBlocksPerYear",
      "outputs": [],
      "stateMutability": "nonpayable",
      "type": "function"
    },
    {
      "inputs": [
        {
          "internalType": "uint256",
          "name": "baseRatePerYear",
          "type": "uint256"
        },
        {
          "internalType": "uint256",
          "name": "multiplierPerYear",
          "type": "uint256"
        },
        {
          "internalType": "uint256",
          "name": "jumpMultiplierPerYear",
          "type": "uint256"
        },
        {
          "internalType": "uint256",
          "name": "kink_",
          "type": "uint256"
        }
      ],
      "name": "updateJumpRateModel",
      "outputs": [],
      "stateMutability": "nonpayable",
      "type": "function"
    },
    {
      "inputs": [
        {
          "internalType": "uint256",
          "name": "cash",
          "type": "uint256"
        },
        {
          "internalType": "uint256",
          "name": "borrows",
          "type": "uint256"
        },
        {
          "internalType": "uint256",
          "name": "reserves",
          "type": "uint256"
        }
      ],
      "name": "utilizationRate",
      "outputs": [
        {
          "internalType": "uint256",
          "name": "",
          "type": "uint256"
        }
      ],
      "stateMutability": "pure",
      "type": "function"
    }
  ],
  "transactionHash": "0xd5ad999fb171011b037218e44c18f58f94afbfae7281038b5bdd44f0e6bd202c",
  "args": [
    31536000,
    "25000000000000000",
    "225000000000000000",
    "5000000000000000000",
    "800000000000000000",
    "0x6a39C1B89a25a8fA399fF73766417ED2213d5dEe",
    "VolatileRateModel"
  ],
  "numDeployments": 1,
  "solcInputHash": "24d35fea140db672f962df919b678bdd",
  "bytecode": "0x60806040523480156200001157600080fd5b506040516200105338038062001053833981016040819052620000349162000449565b600080546001600160a01b03191633908117825560405190919060008051602062001033833981519152908290a3600187905580516200007c9060069060208401906200035a565b506200008882620000a3565b620000968686868662000158565b50505050505050620005ec565b6001600160a01b0381166200010e5760405162461bcd60e51b815260206004820152602660248201527f4f776e61626c653a206e6577206f776e657220697320746865207a65726f206160448201526564647265737360d01b60648201526084015b60405180910390fd5b600080546040516001600160a01b03808516939216916000805160206200103383398151915291a3600080546001600160a01b0319166001600160a01b0392909216919091179055565b62000174600154856200025160201b620005451790919060201c565b600381905550620001d06200019a82600154620002a460201b620005901790919060201c565b620001bc670de0b6b3a764000086620002a460201b620005901790919060201c565b6200025160201b620005451790919060201c565b600281905550620001f2600154836200025160201b620005451790919060201c565b60048190556005829055600354600254604080519283526020830191909152810191909152606081018290527f6960ab234c7ef4b0c9197100f5393cfcde7c453ac910a27bd2000aa1dd4c068d9060800160405180910390a150505050565b60006200029b83836040518060400160405280601a81526020017f536166654d6174683a206469766973696f6e206279207a65726f0000000000008152506200031e60201b60201c565b90505b92915050565b600082620002b5575060006200029e565b82820282620002c5858362000557565b146200029b5760405162461bcd60e51b815260206004820152602160248201527f536166654d6174683a206d756c7469706c69636174696f6e206f766572666c6f6044820152607760f81b606482015260840162000105565b60008183620003425760405162461bcd60e51b81526004016200010591906200057a565b50600062000351848662000557565b95945050505050565b8280546200036890620005af565b90600052602060002090601f0160209004810192826200038c5760008555620003d7565b82601f10620003a757805160ff1916838001178555620003d7565b82800160010185558215620003d7579182015b82811115620003d7578251825591602001919060010190620003ba565b50620003e5929150620003e9565b5090565b5b80821115620003e55760008155600101620003ea565b634e487b7160e01b600052604160045260246000fd5b60005b838110156200043357818101518382015260200162000419565b8381111562000443576000848401525b50505050565b600080600080600080600060e0888a0312156200046557600080fd5b8751602089015160408a015160608b015160808c015160a08d0151949b50929950909750955093506001600160a01b0381168114620004a357600080fd5b60c08901519092506001600160401b0380821115620004c157600080fd5b818a0191508a601f830112620004d657600080fd5b815181811115620004eb57620004eb62000400565b604051601f8201601f19908116603f0116810190838211818310171562000516576200051662000400565b816040528281528d60208487010111156200053057600080fd5b6200054383602083016020880162000416565b809550505050505092959891949750929550565b6000826200057557634e487b7160e01b600052601260045260246000fd5b500490565b60208152600082518060208401526200059b81604085016020870162000416565b601f01601f19169190910160400192915050565b600181811c90821680620005c457607f821691505b60208210811415620005e657634e487b7160e01b600052602260045260246000fd5b50919050565b610a3780620005fc6000396000f3fe608060405234801561001057600080fd5b50600436106101005760003560e01c80638f32d59b11610097578063b9f9850a11610066578063b9f9850a146101f2578063f14039de146101fb578063f2fde38b14610204578063fd2da3391461021757600080fd5b80638f32d59b146101b0578063a3193e2e146101c3578063a385fb96146101d6578063b8168816146101df57600080fd5b80636e71e2d8116100d35780636e71e2d814610171578063715018a6146101845780638726bb891461018c5780638da5cb5b1461019557600080fd5b806306fdde031461010557806315f24053146101235780632037f3e7146101445780632191f92a14610159575b600080fd5b61010d610220565b60405161011a9190610855565b60405180910390f35b6101366101313660046108aa565b6102ae565b60405190815260200161011a565b6101576101523660046108d6565b61037a565b005b610161600181565b604051901515815260200161011a565b61013661017f3660046108aa565b6103bf565b6101576103ff565b61013660025481565b6000546040516001600160a01b03909116815260200161011a565b6000546001600160a01b03163314610161565b6101576101d1366004610908565b610473565b61013660015481565b6101366101ed3660046108d6565b6104a2565b61013660045481565b61013660035481565b610157610212366004610921565b61050f565b61013660055481565b6006805461022d9061094a565b80601f01602080910402602001604051908101604052809291908181526020018280546102599061094a565b80156102a65780601f1061027b576101008083540402835291602001916102a6565b820191906000526020600020905b81548152906001019060200180831161028957829003601f168201915b505050505081565b6000806102bc8585856103bf565b90506005548111610302576102fa6003546102f4670de0b6b3a76400006102ee6002548661059090919063ffffffff16565b90610545565b90610604565b915050610373565b600061032d6003546102f4670de0b6b3a76400006102ee60025460055461059090919063ffffffff16565b905060006103466005548461065990919063ffffffff16565b905061036d826102f4670de0b6b3a76400006102ee6004548661059090919063ffffffff16565b93505050505b9392505050565b6000546001600160a01b031633146103ad5760405162461bcd60e51b81526004016103a490610985565b60405180910390fd5b6103b98484848461069b565b50505050565b6000826103ce57506000610373565b6103f76103e5836103df8787610604565b90610659565b6102ee85670de0b6b3a7640000610590565b949350505050565b6000546001600160a01b031633146104295760405162461bcd60e51b81526004016103a490610985565b600080546040516001600160a01b03909116907f8be0079c531659141344cd1fd0a4f28419497f9722a3daafe3b4186f6b6457e0908390a3600080546001600160a01b0319169055565b6000546001600160a01b0316331461049d5760405162461bcd60e51b81526004016103a490610985565b600155565b6000806104b7670de0b6b3a764000084610659565b905060006104c68787876102ae565b905060006104e0670de0b6b3a76400006102ee8486610590565b9050610503670de0b6b3a76400006102ee836104fd8c8c8c6103bf565b90610590565b98975050505050505050565b6000546001600160a01b031633146105395760405162461bcd60e51b81526004016103a490610985565b6105428161072d565b50565b600061058783836040518060400160405280601a81526020017f536166654d6174683a206469766973696f6e206279207a65726f0000000000008152506107ed565b90505b92915050565b60008261059f5750600061058a565b828202826105ad85836109ba565b146105875760405162461bcd60e51b815260206004820152602160248201527f536166654d6174683a206d756c7469706c69636174696f6e206f766572666c6f6044820152607760f81b60648201526084016103a4565b6000828201838110156105875760405162461bcd60e51b815260206004820152601b60248201527f536166654d6174683a206164646974696f6e206f766572666c6f77000000000060448201526064016103a4565b600061058783836040518060400160405280601f81526020017f536166654d6174683a207375627472616374696f6e20756e646572666c6f7700815250610824565b6001546106a9908590610545565b6003556001546106bd906103e59083610590565b6002556001546106ce908390610545565b60048190556005829055600354600254604080519283526020830191909152810191909152606081018290527f6960ab234c7ef4b0c9197100f5393cfcde7c453ac910a27bd2000aa1dd4c068d9060800160405180910390a150505050565b6001600160a01b0381166107925760405162461bcd60e51b815260206004820152602660248201527f4f776e61626c653a206e6577206f776e657220697320746865207a65726f206160448201526564647265737360d01b60648201526084016103a4565b600080546040516001600160a01b03808516939216917f8be0079c531659141344cd1fd0a4f28419497f9722a3daafe3b4186f6b6457e091a3600080546001600160a01b0319166001600160a01b0392909216919091179055565b6000818361080e5760405162461bcd60e51b81526004016103a49190610855565b50600061081b84866109ba565b95945050505050565b600081848411156108485760405162461bcd60e51b81526004016103a49190610855565b50600061081b84866109dc565b600060208083528351808285015260005b8181101561088257858101830151858201604001528201610866565b81811115610894576000604083870101525b50601f01601f1916929092016040019392505050565b6000806000606084860312156108bf57600080fd5b505081359360208301359350604090920135919050565b600080600080608085870312156108ec57600080fd5b5050823594602084013594506040840135936060013592509050565b60006020828403121561091a57600080fd5b5035919050565b60006020828403121561093357600080fd5b81356001600160a01b038116811461058757600080fd5b600181811c9082168061095e57607f821691505b6020821081141561097f57634e487b7160e01b600052602260045260246000fd5b50919050565b6020808252818101527f4f776e61626c653a2063616c6c6572206973206e6f7420746865206f776e6572604082015260600190565b6000826109d757634e487b7160e01b600052601260045260246000fd5b500490565b6000828210156109fc57634e487b7160e01b600052601160045260246000fd5b50039056fea2646970667358221220a4ca27be0c39ef4f5fb1a46f5aba1c6891858c9a24aca31bcc062f966a4b823d64736f6c634300080a00338be0079c531659141344cd1fd0a4f28419497f9722a3daafe3b4186f6b6457e0",
  "devdoc": {
    "author": "Compound (modified by Dharma Labs)",
    "kind": "dev",
    "methods": {
      "constructor": {
        "params": {
          "baseRatePerYear": "The approximate target base APR, as a mantissa (scaled by 1e18)",
          "jumpMultiplierPerYear": "The multiplierPerBlock after hitting a specified utilization point",
          "kink_": "The utilization point at which the jump multiplier is applied",
          "multiplierPerYear": "The rate of increase in interest rate wrt utilization (scaled by 1e18)",
          "name_": "User-friendly name for the new contract",
          "owner_": "Sets the owner of the contract to someone other than msgSender"
        }
      },
      "getBorrowRate(uint256,uint256,uint256)": {
        "params": {
          "borrows": "The amount of borrows in the market",
          "cash": "The amount of cash in the market",
          "reserves": "The amount of reserves in the market"
        },
        "returns": {
          "_0": "The borrow rate percentage per block as a mantissa (scaled by 1e18)"
        }
      },
      "getSupplyRate(uint256,uint256,uint256,uint256)": {
        "params": {
          "borrows": "The amount of borrows in the market",
          "cash": "The amount of cash in the market",
          "reserveFactorMantissa": "The current reserve factor for the market",
          "reserves": "The amount of reserves in the market"
        },
        "returns": {
          "_0": "The supply rate percentage per block as a mantissa (scaled by 1e18)"
        }
      },
      "isOwner()": {
        "details": "Returns true if the caller is the current owner."
      },
      "owner()": {
        "details": "Returns the address of the current owner."
      },
      "renounceOwnership()": {
        "details": "Leaves the contract without owner. It will not be possible to call `onlyOwner` functions anymore. Can only be called by the current owner. NOTE: Renouncing ownership will leave the contract without an owner, thereby removing any functionality that is only available to the owner."
      },
      "transferOwnership(address)": {
        "details": "Transfers ownership of the contract to a new account (`newOwner`). Can only be called by the current owner."
      },
      "updateBlocksPerYear(uint256)": {
        "params": {
          "blocksPerYear_": "The new estimated eth blocks per year."
        }
      },
      "updateJumpRateModel(uint256,uint256,uint256,uint256)": {
        "params": {
          "baseRatePerYear": "The approximate target base APR, as a mantissa (scaled by 1e18)",
          "jumpMultiplierPerYear": "The multiplierPerBlock after hitting a specified utilization point",
          "kink_": "The utilization point at which the jump multiplier is applied",
          "multiplierPerYear": "The rate of increase in interest rate wrt utilization (scaled by 1e18)"
        }
      },
      "utilizationRate(uint256,uint256,uint256)": {
        "params": {
          "borrows": "The amount of borrows in the market",
          "cash": "The amount of cash in the market",
          "reserves": "The amount of reserves in the market (currently unused)"
        },
        "returns": {
          "_0": "The utilization rate as a mantissa between [0, 1e18]"
        }
      }
    },
    "title": "Compound's JumpRateModel Contract V3",
    "version": 1
  },
  "userdoc": {
    "kind": "user",
    "methods": {
      "baseRatePerBlock()": {
        "notice": "The base interest rate which is the y-intercept when utilization rate is 0"
      },
      "blocksPerYear()": {
        "notice": "The approximate number of blocks per year that is assumed by the interest rate model"
      },
      "constructor": {
        "notice": "Construct an interest rate model"
      },
      "getBorrowRate(uint256,uint256,uint256)": {
        "notice": "Calculates the current borrow rate per block, with the error code expected by the market"
      },
      "getSupplyRate(uint256,uint256,uint256,uint256)": {
        "notice": "Calculates the current supply rate per block"
      },
      "isInterestRateModel()": {
        "notice": "Indicator that this is an InterestRateModel contract (for inspection)"
      },
      "jumpMultiplierPerBlock()": {
        "notice": "The multiplierPerBlock after hitting a specified utilization point"
      },
      "kink()": {
        "notice": "The utilization point at which the jump multiplier is applied"
      },
      "multiplierPerBlock()": {
        "notice": "The multiplier of utilization rate that gives the slope of the interest rate"
      },
      "name()": {
        "notice": "A name for user-friendliness, e.g. WBTC"
      },
      "updateBlocksPerYear(uint256)": {
        "notice": "Updates the blocksPerYear in order to make interest calculations simpler"
      },
      "updateJumpRateModel(uint256,uint256,uint256,uint256)": {
        "notice": "Update the parameters of the interest rate model (only callable by owner, i.e. Timelock)"
      },
      "utilizationRate(uint256,uint256,uint256)": {
        "notice": "Calculates the utilization rate of the market: `borrows / (cash + borrows - reserves)`"
      }
    },
    "notice": "Version 2 modifies Version 1 by enabling updateable parameters.Version 3 includes Ownable and have updatable blocksPerYear.Version 4 moves blocksPerYear to the constructor.",
    "version": 1
  },
  "storageLayout": {
    "storage": [
      {
        "astId": 11910,
        "contract": "contracts/JumpRateModelV4.sol:JumpRateModelV4",
        "label": "_owner",
        "offset": 0,
        "slot": "0",
        "type": "t_address"
      },
      {
        "astId": 11451,
        "contract": "contracts/JumpRateModelV4.sol:JumpRateModelV4",
        "label": "blocksPerYear",
        "offset": 0,
        "slot": "1",
        "type": "t_uint256"
      },
      {
        "astId": 11454,
        "contract": "contracts/JumpRateModelV4.sol:JumpRateModelV4",
        "label": "multiplierPerBlock",
        "offset": 0,
        "slot": "2",
        "type": "t_uint256"
      },
      {
        "astId": 11457,
        "contract": "contracts/JumpRateModelV4.sol:JumpRateModelV4",
        "label": "baseRatePerBlock",
        "offset": 0,
        "slot": "3",
        "type": "t_uint256"
      },
      {
        "astId": 11460,
        "contract": "contracts/JumpRateModelV4.sol:JumpRateModelV4",
        "label": "jumpMultiplierPerBlock",
        "offset": 0,
        "slot": "4",
        "type": "t_uint256"
      },
      {
        "astId": 11463,
        "contract": "contracts/JumpRateModelV4.sol:JumpRateModelV4",
        "label": "kink",
        "offset": 0,
        "slot": "5",
        "type": "t_uint256"
      },
      {
        "astId": 11466,
        "contract": "contracts/JumpRateModelV4.sol:JumpRateModelV4",
        "label": "name",
        "offset": 0,
        "slot": "6",
        "type": "t_string_storage"
      }
    ],
    "types": {
      "t_address": {
        "encoding": "inplace",
        "label": "address",
        "numberOfBytes": "20"
      },
      "t_string_storage": {
        "encoding": "bytes",
        "label": "string",
        "numberOfBytes": "32"
      },
      "t_uint256": {
        "encoding": "inplace",
        "label": "uint256",
        "numberOfBytes": "32"
      }
    }
  }
}